{
  "_format": "hh-sol-artifact-1",
  "contractName": "CarbonCreditExchange",
  "sourceName": "contracts/CarbonCreditExchange.sol",
  "abi": [
    {
      "inputs": [
        {
          "internalType": "contract CarbonCreditToken",
          "name": "_token",
          "type": "address"
        },
        {
          "internalType": "uint256",
          "name": "_tokenPrice",
          "type": "uint256"
        }
      ],
      "stateMutability": "nonpayable",
      "type": "constructor"
    },
    {
      "anonymous": false,
      "inputs": [
        {
          "indexed": false,
          "internalType": "address",
          "name": "seller",
          "type": "address"
        },
        {
          "indexed": false,
          "internalType": "uint256",
          "name": "amount",
          "type": "uint256"
        }
      ],
      "name": "ListingAdded",
      "type": "event"
    },
    {
      "anonymous": false,
      "inputs": [
        {
          "indexed": false,
          "internalType": "address",
          "name": "buyer",
          "type": "address"
        },
        {
          "indexed": false,
          "internalType": "uint256",
          "name": "amount",
          "type": "uint256"
        }
      ],
      "name": "TokensPurchased",
      "type": "event"
    },
    {
      "anonymous": false,
      "inputs": [
        {
          "indexed": false,
          "internalType": "address",
          "name": "seller",
          "type": "address"
        },
        {
          "indexed": false,
          "internalType": "uint256",
          "name": "amount",
          "type": "uint256"
        }
      ],
      "name": "TokensSold",
      "type": "event"
    },
    {
      "inputs": [
        {
          "internalType": "uint256",
          "name": "_amount",
          "type": "uint256"
        },
        {
          "internalType": "uint256",
          "name": "_sellerUSDTokenPrice",
          "type": "uint256"
        },
        {
          "internalType": "address",
          "name": "seller",
          "type": "address"
        }
      ],
      "name": "buyListedTokens",
      "outputs": [],
      "stateMutability": "payable",
      "type": "function"
    },
    {
      "inputs": [
        {
          "internalType": "uint256",
          "name": "_amount",
          "type": "uint256"
        }
      ],
      "name": "buyTokens",
      "outputs": [],
      "stateMutability": "payable",
      "type": "function"
    },
    {
      "inputs": [
        {
          "internalType": "uint256",
          "name": "tokenAmount",
          "type": "uint256"
        }
      ],
      "name": "createListing",
      "outputs": [],
      "stateMutability": "nonpayable",
      "type": "function"
    },
    {
      "inputs": [],
      "name": "getLatestETHUSDPrice",
      "outputs": [
        {
          "internalType": "uint256",
          "name": "",
          "type": "uint256"
        }
      ],
      "stateMutability": "view",
      "type": "function"
    },
    {
      "inputs": [
        {
          "internalType": "uint256",
          "name": "_amount",
          "type": "uint256"
        }
      ],
      "name": "sellTokens",
      "outputs": [],
      "stateMutability": "nonpayable",
      "type": "function"
    },
    {
      "inputs": [
        {
          "internalType": "uint256",
          "name": "_tokenPrice",
          "type": "uint256"
        }
      ],
      "name": "setTokenPrice",
      "outputs": [],
      "stateMutability": "nonpayable",
      "type": "function"
    },
    {
      "inputs": [],
      "name": "tempAllowance",
      "outputs": [
        {
          "internalType": "uint256",
          "name": "",
          "type": "uint256"
        }
      ],
      "stateMutability": "view",
      "type": "function"
    },
    {
      "inputs": [],
      "name": "token",
      "outputs": [
        {
          "internalType": "contract CarbonCreditToken",
          "name": "",
          "type": "address"
        }
      ],
      "stateMutability": "view",
      "type": "function"
    },
    {
      "inputs": [],
      "name": "tokenPrice",
      "outputs": [
        {
          "internalType": "uint256",
          "name": "",
          "type": "uint256"
        }
      ],
      "stateMutability": "view",
      "type": "function"
    },
    {
      "inputs": [],
      "name": "withdrawEther",
      "outputs": [],
      "stateMutability": "nonpayable",
      "type": "function"
    }
  ],
  "bytecode": "0x60806040523480156200001157600080fd5b50604051620017e8380380620017e8833981810160405281019062000037919062000194565b816000806101000a81548173ffffffffffffffffffffffffffffffffffffffff021916908373ffffffffffffffffffffffffffffffffffffffff1602179055508060018190555073694aa1769357215de4fac081bf1f309adc325306600360006101000a81548173ffffffffffffffffffffffffffffffffffffffff021916908373ffffffffffffffffffffffffffffffffffffffff1602179055505050620001db565b600080fd5b600073ffffffffffffffffffffffffffffffffffffffff82169050919050565b60006200010d82620000e0565b9050919050565b6000620001218262000100565b9050919050565b620001338162000114565b81146200013f57600080fd5b50565b600081519050620001538162000128565b92915050565b6000819050919050565b6200016e8162000159565b81146200017a57600080fd5b50565b6000815190506200018e8162000163565b92915050565b60008060408385031215620001ae57620001ad620000db565b5b6000620001be8582860162000142565b9250506020620001d1858286016200017d565b9150509250929050565b6115fd80620001eb6000396000f3fe6080604052600436106100915760003560e01c80637362377b116100595780637362377b1461015a5780637ff9b59614610171578063a8fbb8c11461019c578063e46d9551146101b8578063fc0c546a146101e157610091565b806316b34762146100965780633610724e146100c15780636a61e5fc146100dd5780636aa83fea146101065780636c11bcd314610131575b600080fd5b3480156100a257600080fd5b506100ab61020c565b6040516100b89190610da6565b60405180910390f35b6100db60048036038101906100d69190610df2565b610212565b005b3480156100e957600080fd5b5061010460048036038101906100ff9190610df2565b61043e565b005b34801561011257600080fd5b5061011b610448565b6040516101289190610da6565b60405180910390f35b34801561013d57600080fd5b5061015860048036038101906101539190610df2565b6104f8565b005b34801561016657600080fd5b5061016f610767565b005b34801561017d57600080fd5b506101866107b0565b6040516101939190610da6565b60405180910390f35b6101b660048036038101906101b19190610e7d565b6107b6565b005b3480156101c457600080fd5b506101df60048036038101906101da9190610df2565b610c38565b005b3480156101ed57600080fd5b506101f6610d69565b6040516102039190610f2f565b60405180910390f35b60025481565b6000600154826102229190610f79565b90506000670de0b6b3a76400008361023a9190610f79565b905081341461027e576040517f08c379a000000000000000000000000000000000000000000000000000000000815260040161027590611018565b60405180910390fd5b60008060009054906101000a900473ffffffffffffffffffffffffffffffffffffffff1673ffffffffffffffffffffffffffffffffffffffff166370a08231306040518263ffffffff1660e01b81526004016102da9190611047565b602060405180830381865afa1580156102f7573d6000803e3d6000fd5b505050506040513d601f19601f8201168201806040525081019061031b9190611077565b905081811015610360576040517f08c379a0000000000000000000000000000000000000000000000000000000008152600401610357906110f0565b60405180910390fd5b60008054906101000a900473ffffffffffffffffffffffffffffffffffffffff1673ffffffffffffffffffffffffffffffffffffffff1663a9059cbb33846040518363ffffffff1660e01b81526004016103bb929190611110565b6020604051808303816000875af11580156103da573d6000803e3d6000fd5b505050506040513d601f19601f820116820180604052508101906103fe9190611171565b507f8f28852646c20cc973d3a8218f7eefed58c25c909f78f0265af4818c3d4dc2713383604051610430929190611110565b60405180910390a150505050565b8060018190555050565b600080600360009054906101000a900473ffffffffffffffffffffffffffffffffffffffff1673ffffffffffffffffffffffffffffffffffffffff1663feaf968c6040518163ffffffff1660e01b815260040160a060405180830381865afa1580156104b8573d6000803e3d6000fd5b505050506040513d601f19601f820116820180604052508101906104dc9190611216565b5050509150506305f5e100816104f291906112c0565b91505090565b6000670de0b6b3a76400008261050e9190610f79565b90508060008054906101000a900473ffffffffffffffffffffffffffffffffffffffff1673ffffffffffffffffffffffffffffffffffffffff166370a08231336040518263ffffffff1660e01b815260040161056a9190611047565b602060405180830381865afa158015610587573d6000803e3d6000fd5b505050506040513d601f19601f820116820180604052508101906105ab9190611077565b10156105ec576040517f08c379a00000000000000000000000000000000000000000000000000000000081526004016105e39061133d565b60405180910390fd5b6000600154836105fc9190610f79565b905080471015610641576040517f08c379a0000000000000000000000000000000000000000000000000000000008152600401610638906113a9565b60405180910390fd5b60008054906101000a900473ffffffffffffffffffffffffffffffffffffffff1673ffffffffffffffffffffffffffffffffffffffff166323b872dd3330856040518463ffffffff1660e01b815260040161069e939291906113c9565b6020604051808303816000875af11580156106bd573d6000803e3d6000fd5b505050506040513d601f19601f820116820180604052508101906106e19190611171565b503373ffffffffffffffffffffffffffffffffffffffff166108fc829081150290604051600060405180830381858888f19350505050158015610728573d6000803e3d6000fd5b507f57d61f3ccd4ccd25ec5d234d6049553a586fac134c85c98d0b0d9d5724f4e43e338460405161075a929190611110565b60405180910390a1505050565b3373ffffffffffffffffffffffffffffffffffffffff166108fc479081150290604051600060405180830381858888f193505050501580156107ad573d6000803e3d6000fd5b50565b60015481565b600082846107c49190610f79565b905060006107d0610448565b9050600081670de0b6b3a7640000846107e99190610f79565b6107f391906112c0565b90506000670de0b6b3a76400008761080b9190610f79565b905060008054906101000a900473ffffffffffffffffffffffffffffffffffffffff1673ffffffffffffffffffffffffffffffffffffffff1663dd62ed3e86306040518363ffffffff1660e01b8152600401610868929190611400565b602060405180830381865afa158015610885573d6000803e3d6000fd5b505050506040513d601f19601f820116820180604052508101906108a99190611077565b60028190555060008060009054906101000a900473ffffffffffffffffffffffffffffffffffffffff1673ffffffffffffffffffffffffffffffffffffffff166370a08231876040518263ffffffff1660e01b815260040161090b9190611047565b602060405180830381865afa158015610928573d6000803e3d6000fd5b505050506040513d601f19601f8201168201806040525081019061094c9190611077565b905081811015610991576040517f08c379a0000000000000000000000000000000000000000000000000000000008152600401610988906110f0565b60405180910390fd5b823410156109d4576040517f08c379a00000000000000000000000000000000000000000000000000000000081526004016109cb90611475565b60405180910390fd5b8160008054906101000a900473ffffffffffffffffffffffffffffffffffffffff1673ffffffffffffffffffffffffffffffffffffffff1663dd62ed3e88306040518363ffffffff1660e01b8152600401610a30929190611400565b602060405180830381865afa158015610a4d573d6000803e3d6000fd5b505050506040513d601f19601f82011682018060405250810190610a719190611077565b1015610ab2576040517f08c379a0000000000000000000000000000000000000000000000000000000008152600401610aa990611507565b60405180910390fd5b60008054906101000a900473ffffffffffffffffffffffffffffffffffffffff1673ffffffffffffffffffffffffffffffffffffffff166323b872dd8733856040518463ffffffff1660e01b8152600401610b0f939291906113c9565b6020604051808303816000875af1158015610b2e573d6000803e3d6000fd5b505050506040513d601f19601f82011682018060405250810190610b529190611171565b508573ffffffffffffffffffffffffffffffffffffffff166108fc849081150290604051600060405180830381858888f19350505050158015610b99573d6000803e3d6000fd5b507f8f28852646c20cc973d3a8218f7eefed58c25c909f78f0265af4818c3d4dc2713383604051610bcb929190611110565b60405180910390a182341115610c2e573373ffffffffffffffffffffffffffffffffffffffff166108fc8434610c019190611527565b9081150290604051600060405180830381858888f19350505050158015610c2c573d6000803e3d6000fd5b505b5050505050505050565b6000670de0b6b3a764000082610c4e9190610f79565b90508060008054906101000a900473ffffffffffffffffffffffffffffffffffffffff1673ffffffffffffffffffffffffffffffffffffffff166370a08231336040518263ffffffff1660e01b8152600401610caa9190611047565b602060405180830381865afa158015610cc7573d6000803e3d6000fd5b505050506040513d601f19601f82011682018060405250810190610ceb9190611077565b1015610d2c576040517f08c379a0000000000000000000000000000000000000000000000000000000008152600401610d23906115a7565b60405180910390fd5b7f43fb434687f367e1e9a6c5f3dd2efb3393afd9901c742142de2e13940673d1473382604051610d5d929190611110565b60405180910390a15050565b60008054906101000a900473ffffffffffffffffffffffffffffffffffffffff1681565b6000819050919050565b610da081610d8d565b82525050565b6000602082019050610dbb6000830184610d97565b92915050565b600080fd5b610dcf81610d8d565b8114610dda57600080fd5b50565b600081359050610dec81610dc6565b92915050565b600060208284031215610e0857610e07610dc1565b5b6000610e1684828501610ddd565b91505092915050565b600073ffffffffffffffffffffffffffffffffffffffff82169050919050565b6000610e4a82610e1f565b9050919050565b610e5a81610e3f565b8114610e6557600080fd5b50565b600081359050610e7781610e51565b92915050565b600080600060608486031215610e9657610e95610dc1565b5b6000610ea486828701610ddd565b9350506020610eb586828701610ddd565b9250506040610ec686828701610e68565b9150509250925092565b6000819050919050565b6000610ef5610ef0610eeb84610e1f565b610ed0565b610e1f565b9050919050565b6000610f0782610eda565b9050919050565b6000610f1982610efc565b9050919050565b610f2981610f0e565b82525050565b6000602082019050610f446000830184610f20565b92915050565b7f4e487b7100000000000000000000000000000000000000000000000000000000600052601160045260246000fd5b6000610f8482610d8d565b9150610f8f83610d8d565b9250828202610f9d81610d8d565b91508282048414831517610fb457610fb3610f4a565b5b5092915050565b600082825260208201905092915050565b7f496e636f72726563742045746865722076616c75652073656e74000000000000600082015250565b6000611002601a83610fbb565b915061100d82610fcc565b602082019050919050565b6000602082019050818103600083015261103181610ff5565b9050919050565b61104181610e3f565b82525050565b600060208201905061105c6000830184611038565b92915050565b60008151905061107181610dc6565b92915050565b60006020828403121561108d5761108c610dc1565b5b600061109b84828501611062565b91505092915050565b7f4e6f7420656e6f75676820746f6b656e7320617661696c61626c650000000000600082015250565b60006110da601b83610fbb565b91506110e5826110a4565b602082019050919050565b60006020820190508181036000830152611109816110cd565b9050919050565b60006040820190506111256000830185611038565b6111326020830184610d97565b9392505050565b60008115159050919050565b61114e81611139565b811461115957600080fd5b50565b60008151905061116b81611145565b92915050565b60006020828403121561118757611186610dc1565b5b60006111958482850161115c565b91505092915050565b600069ffffffffffffffffffff82169050919050565b6111bd8161119e565b81146111c857600080fd5b50565b6000815190506111da816111b4565b92915050565b6000819050919050565b6111f3816111e0565b81146111fe57600080fd5b50565b600081519050611210816111ea565b92915050565b600080600080600060a0868803121561123257611231610dc1565b5b6000611240888289016111cb565b955050602061125188828901611201565b945050604061126288828901611062565b935050606061127388828901611062565b9250506080611284888289016111cb565b9150509295509295909350565b7f4e487b7100000000000000000000000000000000000000000000000000000000600052601260045260246000fd5b60006112cb82610d8d565b91506112d683610d8d565b9250826112e6576112e5611291565b5b828204905092915050565b7f4e6f7420656e6f75676820746f6b656e7320746f2073656c6c00000000000000600082015250565b6000611327601983610fbb565b9150611332826112f1565b602082019050919050565b600060208201905081810360008301526113568161131a565b9050919050565b7f4e6f7420656e6f75676820457468657220696e2074686520636f6e7472616374600082015250565b6000611393602083610fbb565b915061139e8261135d565b602082019050919050565b600060208201905081810360008301526113c281611386565b9050919050565b60006060820190506113de6000830186611038565b6113eb6020830185611038565b6113f86040830184610d97565b949350505050565b60006040820190506114156000830185611038565b6114226020830184611038565b9392505050565b7f496e73756666696369656e742045746865722073656e74000000000000000000600082015250565b600061145f601783610fbb565b915061146a82611429565b602082019050919050565b6000602082019050818103600083015261148e81611452565b9050919050565b7f53656c6c657220686173206e6f7420617070726f76656420656e6f756768207460008201527f6f6b656e73000000000000000000000000000000000000000000000000000000602082015250565b60006114f1602583610fbb565b91506114fc82611495565b604082019050919050565b60006020820190508181036000830152611520816114e4565b9050919050565b600061153282610d8d565b915061153d83610d8d565b925082820390508181111561155557611554610f4a565b5b92915050565b7f4e6f7420656e6f75676820746f6b656e7320746f206c69737400000000000000600082015250565b6000611591601983610fbb565b915061159c8261155b565b602082019050919050565b600060208201905081810360008301526115c081611584565b905091905056fea264697066735822122072a39a4e2d288ee7537912585b74c3a45afc0e1e23140348740cf4117374a25c64736f6c63430008140033",
  "linkReferences": {},
  "deployedLinkReferences": {}
}